{
  "contractName": "Admin",
  "abi": [
    {
      "inputs": [],
      "name": "_owner",
      "outputs": [
        {
          "internalType": "address",
          "name": "",
          "type": "address"
        }
      ],
      "stateMutability": "view",
      "type": "function",
      "constant": true
    },
    {
      "inputs": [],
      "name": "consumerNumber",
      "outputs": [
        {
          "internalType": "uint256",
          "name": "",
          "type": "uint256"
        }
      ],
      "stateMutability": "view",
      "type": "function",
      "constant": true
    },
    {
      "inputs": [
        {
          "internalType": "address",
          "name": "",
          "type": "address"
        }
      ],
      "name": "consumer_no",
      "outputs": [
        {
          "internalType": "uint256",
          "name": "",
          "type": "uint256"
        }
      ],
      "stateMutability": "view",
      "type": "function",
      "constant": true
    },
    {
      "inputs": [],
      "name": "isOwner",
      "outputs": [
        {
          "internalType": "bool",
          "name": "",
          "type": "bool"
        }
      ],
      "stateMutability": "view",
      "type": "function",
      "constant": true
    },
    {
      "inputs": [
        {
          "internalType": "uint256",
          "name": "",
          "type": "uint256"
        }
      ],
      "name": "registration",
      "outputs": [
        {
          "internalType": "uint256",
          "name": "consumerNo",
          "type": "uint256"
        },
        {
          "internalType": "string",
          "name": "username",
          "type": "string"
        },
        {
          "internalType": "uint256",
          "name": "prevReading",
          "type": "uint256"
        }
      ],
      "stateMutability": "view",
      "type": "function",
      "constant": true
    },
    {
      "inputs": [
        {
          "internalType": "address",
          "name": "_consumerAddress",
          "type": "address"
        },
        {
          "internalType": "string",
          "name": "_username",
          "type": "string"
        },
        {
          "internalType": "uint256",
          "name": "_prevReading",
          "type": "uint256"
        }
      ],
      "name": "addConsumer",
      "outputs": [],
      "stateMutability": "nonpayable",
      "type": "function"
    }
  ],
  "bytecode": "0x6080604052336000806101000a81548173ffffffffffffffffffffffffffffffffffffffff021916908373ffffffffffffffffffffffffffffffffffffffff1602179055506105e0806100536000396000f3fe608060405234801561001057600080fd5b50600436106100625760003560e01c806327581f2e146100675780633516dcd1146100855780637e1c2ea81461013a5780638f32d59b14610192578063b2bdfa7b146101b4578063fd13c5df146101fe575b600080fd5b61006f6102e3565b6040518082815260200191505060405180910390f35b6100b16004803603602081101561009b57600080fd5b81019080803590602001909291905050506102e9565b6040518084815260200180602001838152602001828103825284818151815260200191508051906020019080838360005b838110156100fd5780820151818401526020810190506100e2565b50505050905090810190601f16801561012a5780820380516001836020036101000a031916815260200191505b5094505050505060405180910390f35b61017c6004803603602081101561015057600080fd5b81019080803573ffffffffffffffffffffffffffffffffffffffff1690602001909291905050506103ab565b6040518082815260200191505060405180910390f35b61019a6103c3565b604051808215151515815260200191505060405180910390f35b6101bc61041a565b604051808273ffffffffffffffffffffffffffffffffffffffff1673ffffffffffffffffffffffffffffffffffffffff16815260200191505060405180910390f35b6102e16004803603606081101561021457600080fd5b81019080803573ffffffffffffffffffffffffffffffffffffffff1690602001909291908035906020019064010000000081111561025157600080fd5b82018360208201111561026357600080fd5b8035906020019184600183028401116401000000008311171561028557600080fd5b91908080601f016020809104026020016040519081016040528093929190818152602001838380828437600081840152601f19601f8201169050808301925050505050505091929192908035906020019092919050505061043f565b005b60015481565b6003602052806000526040600020600091509050806000015490806001018054600181600116156101000203166002900480601f01602080910402602001604051908101604052809291908181526020018280546001816001161561010002031660029004801561039b5780601f106103705761010080835404028352916020019161039b565b820191906000526020600020905b81548152906001019060200180831161037e57829003601f168201915b5050505050908060020154905083565b60026020528060005260406000206000915090505481565b60008060009054906101000a900473ffffffffffffffffffffffffffffffffffffffff1673ffffffffffffffffffffffffffffffffffffffff163373ffffffffffffffffffffffffffffffffffffffff1614905090565b6000809054906101000a900473ffffffffffffffffffffffffffffffffffffffff1681565b600160008154809291906001019190505550600154600260008573ffffffffffffffffffffffffffffffffffffffff1673ffffffffffffffffffffffffffffffffffffffff16815260200190815260200160002081905550600154600360006001548152602001908152602001600020600001819055508160036000600154815260200190815260200160002060010190805190602001906104e2929190610505565b508060036000600154815260200190815260200160002060020181905550505050565b828054600181600116156101000203166002900490600052602060002090601f016020900481019282601f1061054657805160ff1916838001178555610574565b82800160010185558215610574579182015b82811115610573578251825591602001919060010190610558565b5b5090506105819190610585565b5090565b6105a791905b808211156105a357600081600090555060010161058b565b5090565b9056fea26469706673582212200612095404483a2691999632e82a22f2011bf081088445f7aa1888f42c6b20bd64736f6c63430006010033",
  "source": "// SPDX-License-Identifier: MIT\npragma solidity ^0.6.0;\nimport \"./AdminPower.sol\";\n\n\n\ncontract Admin is AdminPower{\n\n\n    uint public consumerNumber;\n    struct regConsumer\n    {\n        // address accountNo; //consumer address\n\n        uint consumerNo;\n\n        string username;\n\n        uint prevReading;\n    }\n\n    mapping(address =>uint ) public consumer_no;\n\n    //to store address of consumer according to registration  number\n    mapping(uint => regConsumer) public registration;\n\n\n    //Consumer registration function\n    function addConsumer(address _consumerAddress, string memory _username , uint _prevReading) public\n    {\n        consumerNumber++; //self increment consumer number\n        \n        consumer_no[_consumerAddress]=consumerNumber;// to store consumer number\n\n\n        // registration[consumerNumber].accountNo=_consumerAddress; //consumer's public address is stored\n\n        registration[consumerNumber].consumerNo=consumerNumber; //consumer's number is stored\n\n        registration[consumerNumber].username=_username; //consumer's user is stored\n\n        registration[consumerNumber].prevReading=_prevReading; //consumer's previous is stored\n        \n\n\n    }\n}",
  "sourcePath": "/home/unblok/Documents/wetew/ced-b4-g02/contracts/Admin.sol",
  "compiler": {
    "name": "solc",
    "version": "0.6.1+commit.e6f7d5a4.Emscripten.clang"
  },
  "schemaVersion": "3.3.3",
  "updatedAt": "2021-01-03T15:26:51.718Z",
  "networkType": "ethereum",
  "devdoc": {
    "methods": {}
  },
  "userdoc": {
    "methods": {}
  }
}