{
  "contractName": "Consumption",
  "abi": [
    {
      "inputs": [
        {
          "internalType": "contract Elektron",
          "name": "_token",
          "type": "address"
        }
      ],
      "stateMutability": "nonpayable",
      "type": "constructor"
    },
    {
      "inputs": [],
      "name": "_owner",
      "outputs": [
        {
          "internalType": "address",
          "name": "",
          "type": "address"
        }
      ],
      "stateMutability": "view",
      "type": "function",
      "constant": true
    },
    {
      "inputs": [
        {
          "internalType": "address",
          "name": "_consumerAddress",
          "type": "address"
        },
        {
          "internalType": "string",
          "name": "_username",
          "type": "string"
        },
        {
          "internalType": "uint256",
          "name": "_prevReading",
          "type": "uint256"
        }
      ],
      "name": "addConsumer",
      "outputs": [],
      "stateMutability": "nonpayable",
      "type": "function"
    },
    {
      "inputs": [],
      "name": "consumerNumber",
      "outputs": [
        {
          "internalType": "uint256",
          "name": "",
          "type": "uint256"
        }
      ],
      "stateMutability": "view",
      "type": "function",
      "constant": true
    },
    {
      "inputs": [
        {
          "internalType": "address",
          "name": "",
          "type": "address"
        }
      ],
      "name": "consumer_no",
      "outputs": [
        {
          "internalType": "uint256",
          "name": "",
          "type": "uint256"
        }
      ],
      "stateMutability": "view",
      "type": "function",
      "constant": true
    },
    {
      "inputs": [],
      "name": "isOwner",
      "outputs": [
        {
          "internalType": "bool",
          "name": "",
          "type": "bool"
        }
      ],
      "stateMutability": "view",
      "type": "function",
      "constant": true
    },
    {
      "inputs": [
        {
          "internalType": "uint256",
          "name": "",
          "type": "uint256"
        }
      ],
      "name": "registration",
      "outputs": [
        {
          "internalType": "uint256",
          "name": "consumerNo",
          "type": "uint256"
        },
        {
          "internalType": "string",
          "name": "username",
          "type": "string"
        },
        {
          "internalType": "uint256",
          "name": "prevReading",
          "type": "uint256"
        }
      ],
      "stateMutability": "view",
      "type": "function",
      "constant": true
    },
    {
      "inputs": [],
      "name": "token",
      "outputs": [
        {
          "internalType": "contract Elektron",
          "name": "",
          "type": "address"
        }
      ],
      "stateMutability": "view",
      "type": "function",
      "constant": true
    },
    {
      "inputs": [
        {
          "internalType": "address",
          "name": "",
          "type": "address"
        }
      ],
      "name": "unitBalanceCheck",
      "outputs": [
        {
          "internalType": "uint256",
          "name": "previousReading",
          "type": "uint256"
        },
        {
          "internalType": "uint256",
          "name": "currentReading",
          "type": "uint256"
        },
        {
          "internalType": "uint256",
          "name": "unitShared",
          "type": "uint256"
        },
        {
          "internalType": "uint256",
          "name": "due",
          "type": "uint256"
        },
        {
          "internalType": "uint256",
          "name": "currentconsumption",
          "type": "uint256"
        },
        {
          "internalType": "uint256",
          "name": "rewardamount",
          "type": "uint256"
        }
      ],
      "stateMutability": "view",
      "type": "function",
      "constant": true
    },
    {
      "inputs": [
        {
          "internalType": "address",
          "name": "_user",
          "type": "address"
        },
        {
          "internalType": "uint256",
          "name": "_currentReading",
          "type": "uint256"
        },
        {
          "internalType": "uint256",
          "name": "_unitshared",
          "type": "uint256"
        },
        {
          "internalType": "uint256",
          "name": "_pReading",
          "type": "uint256"
        }
      ],
      "name": "totalUnitConsumed",
      "outputs": [],
      "stateMutability": "nonpayable",
      "type": "function"
    }
  ],
  "bytecode": "0x6080604052600160045534801561001557600080fd5b50604051610cf6380380610cf68339818101604052602081101561003857600080fd5b8101908080519060200190929190505050336000806101000a81548173ffffffffffffffffffffffffffffffffffffffff021916908373ffffffffffffffffffffffffffffffffffffffff16021790555080600660006101000a81548173ffffffffffffffffffffffffffffffffffffffff021916908373ffffffffffffffffffffffffffffffffffffffff16021790555050610c1c806100da6000396000f3fe608060405234801561001057600080fd5b50600436106100935760003560e01c80638f32d59b116100665780638f32d59b14610225578063982ad63114610247578063b2bdfa7b146102c2578063fc0c546a1461030c578063fd13c5df1461035657610093565b80631c45dc511461009857806327581f2e146100fa5780633516dcd1146101185780637e1c2ea8146101cd575b600080fd5b6100f8600480360360808110156100ae57600080fd5b81019080803573ffffffffffffffffffffffffffffffffffffffff16906020019092919080359060200190929190803590602001909291908035906020019092919050505061043b565b005b6101026108bd565b6040518082815260200191505060405180910390f35b6101446004803603602081101561012e57600080fd5b81019080803590602001909291905050506108c3565b6040518084815260200180602001838152602001828103825284818151815260200191508051906020019080838360005b83811015610190578082015181840152602081019050610175565b50505050905090810190601f1680156101bd5780820380516001836020036101000a031916815260200191505b5094505050505060405180910390f35b61020f600480360360208110156101e357600080fd5b81019080803573ffffffffffffffffffffffffffffffffffffffff169060200190929190505050610985565b6040518082815260200191505060405180910390f35b61022d61099d565b604051808215151515815260200191505060405180910390f35b6102896004803603602081101561025d57600080fd5b81019080803573ffffffffffffffffffffffffffffffffffffffff1690602001909291905050506109f4565b60405180878152602001868152602001858152602001848152602001838152602001828152602001965050505050505060405180910390f35b6102ca610a30565b604051808273ffffffffffffffffffffffffffffffffffffffff1673ffffffffffffffffffffffffffffffffffffffff16815260200191505060405180910390f35b610314610a55565b604051808273ffffffffffffffffffffffffffffffffffffffff1673ffffffffffffffffffffffffffffffffffffffff16815260200191505060405180910390f35b6104396004803603606081101561036c57600080fd5b81019080803573ffffffffffffffffffffffffffffffffffffffff169060200190929190803590602001906401000000008111156103a957600080fd5b8201836020820111156103bb57600080fd5b803590602001918460018302840111640100000000831117156103dd57600080fd5b91908080601f016020809104026020016040519081016040528093929190818152602001838380828437600081840152601f19601f82011690508083019250505050505050919291929080359060200190929190505050610a7b565b005b61044361099d565b6104b5576040517f08c379a00000000000000000000000000000000000000000000000000000000081526004018080602001828103825260208152602001807f4f776e61626c653a2063616c6c6572206973206e6f7420746865206f776e657281525060200191505060405180910390fd5b82600760008673ffffffffffffffffffffffffffffffffffffffff1673ffffffffffffffffffffffffffffffffffffffff1681526020019081526020016000206001018190555081600760008673ffffffffffffffffffffffffffffffffffffffff1673ffffffffffffffffffffffffffffffffffffffff168152602001908152602001600020600201819055506003600082815260200190815260200160002060020154600760008673ffffffffffffffffffffffffffffffffffffffff1673ffffffffffffffffffffffffffffffffffffffff16815260200190815260200160002060000181905550600760008573ffffffffffffffffffffffffffffffffffffffff1673ffffffffffffffffffffffffffffffffffffffff168152602001908152602001600020600001548303600760008673ffffffffffffffffffffffffffffffffffffffff1673ffffffffffffffffffffffffffffffffffffffff1681526020019081526020016000206004018190555081600760008673ffffffffffffffffffffffffffffffffffffffff1673ffffffffffffffffffffffffffffffffffffffff16815260200190815260200160002060040154106107045781600760008673ffffffffffffffffffffffffffffffffffffffff1673ffffffffffffffffffffffffffffffffffffffff1681526020019081526020016000206004015403600760008673ffffffffffffffffffffffffffffffffffffffff1673ffffffffffffffffffffffffffffffffffffffff168152602001908152602001600020600301819055506108b7565b600760008573ffffffffffffffffffffffffffffffffffffffff1673ffffffffffffffffffffffffffffffffffffffff168152602001908152602001600020600401548203600760008673ffffffffffffffffffffffffffffffffffffffff1673ffffffffffffffffffffffffffffffffffffffff16815260200190815260200160002060050181905550600660009054906101000a900473ffffffffffffffffffffffffffffffffffffffff1673ffffffffffffffffffffffffffffffffffffffff1663a9059cbb85600760008873ffffffffffffffffffffffffffffffffffffffff1673ffffffffffffffffffffffffffffffffffffffff168152602001908152602001600020600501546040518363ffffffff1660e01b8152600401808373ffffffffffffffffffffffffffffffffffffffff1673ffffffffffffffffffffffffffffffffffffffff16815260200182815260200192505050602060405180830381600087803b15801561087a57600080fd5b505af115801561088e573d6000803e3d6000fd5b505050506040513d60208110156108a457600080fd5b8101908080519060200190929190505050505b50505050565b60015481565b6003602052806000526040600020600091509050806000015490806001018054600181600116156101000203166002900480601f0160208091040260200160405190810160405280929190818152602001828054600181600116156101000203166002900480156109755780601f1061094a57610100808354040283529160200191610975565b820191906000526020600020905b81548152906001019060200180831161095857829003601f168201915b5050505050908060020154905083565b60026020528060005260406000206000915090505481565b60008060009054906101000a900473ffffffffffffffffffffffffffffffffffffffff1673ffffffffffffffffffffffffffffffffffffffff163373ffffffffffffffffffffffffffffffffffffffff1614905090565b60076020528060005260406000206000915090508060000154908060010154908060020154908060030154908060040154908060050154905086565b6000809054906101000a900473ffffffffffffffffffffffffffffffffffffffff1681565b600660009054906101000a900473ffffffffffffffffffffffffffffffffffffffff1681565b600160008154809291906001019190505550600154600260008573ffffffffffffffffffffffffffffffffffffffff1673ffffffffffffffffffffffffffffffffffffffff1681526020019081526020016000208190555060015460036000600154815260200190815260200160002060000181905550816003600060015481526020019081526020016000206001019080519060200190610b1e929190610b41565b508060036000600154815260200190815260200160002060020181905550505050565b828054600181600116156101000203166002900490600052602060002090601f016020900481019282601f10610b8257805160ff1916838001178555610bb0565b82800160010185558215610bb0579182015b82811115610baf578251825591602001919060010190610b94565b5b509050610bbd9190610bc1565b5090565b610be391905b80821115610bdf576000816000905550600101610bc7565b5090565b9056fea264697066735822122040d6d3ef1797eaf92ac14c7300ce2f47270e9ffdc0b9e0020df3956ce562fdc464736f6c63430006010033",
  "source": "// SPDX-License-Identifier: MIT\npragma solidity ^0.6.0;\nimport\"./AdminPower.sol\";\nimport\"./Elektron.sol\";\nimport\"./Admin.sol\";\n\ncontract Consumption is AdminPower,Admin\n{\n\n\n\n\n    //no. of elektrons per unit\n    uint basevalue=1;\n    //first given reading\n    uint firstReading;\n    // state variable of tokens instance\n    Elektron public token;\n\n    constructor(Elektron _token) public {\n\n      token = _token;\n\n    }\n\n    \n\n\n\n        //to store consumer consumption details\n    struct consumerDetails\n    {\n        //to store previous unit reading\n        uint previousReading;\n\n        //to store current reading\n        uint currentReading;\n\n        //to store Power Grid shared unit\n        uint unitShared;\n\n        //to store total unit after claculatinf with shared unit\n         uint due;\n        \n        //to store current consumption of unit\n        uint currentconsumption;\n        \n        //to store reward tokens amount\n        uint rewardamount; \n\n        //to store power shared\n\n       \n\n\n    }\n     \n     \n\n\n      //to store consumers consumption details\n    mapping(address=>consumerDetails) public unitBalanceCheck;\n\n\n  //function to calculate amount of units used and calculates the amount of token to be rewarded after checking both shared unit and consumed unit\n  //this function uses users current reading to check with previous reading of the same user \n\n    function totalUnitConsumed (address _user,uint _currentReading,uint _unitshared, uint _pReading) public onlyOwner\n    {\n        //storing current reading\n      unitBalanceCheck[_user].currentReading = _currentReading;\n\n      //storing shared unit\n      unitBalanceCheck[_user].unitShared = _unitshared;\n\n      unitBalanceCheck[_user].previousReading = registration[_pReading].prevReading;\n      //calculating total unit consumed\n      unitBalanceCheck[_user].currentconsumption=_currentReading-unitBalanceCheck[_user].previousReading;\n\n      //condition to check how much tokens to be rwarded and total of consumption. \n      if(unitBalanceCheck[_user].currentconsumption>=_unitshared)\n      {\n        unitBalanceCheck[_user].due=unitBalanceCheck[_user].currentconsumption-_unitshared;\n\n      }\n      else\n      {\n        unitBalanceCheck[_user].rewardamount=_unitshared-unitBalanceCheck[_user].currentconsumption;\n        token.transfer(_user, unitBalanceCheck[_user].rewardamount);\n      }\n    \n\n    }\n\n    \n\n  \n\n}\n",
  "sourcePath": "/home/unblok/Documents/wetew/ced-b4-g02/contracts/Consumption.sol",
  "compiler": {
    "name": "solc",
    "version": "0.6.1+commit.e6f7d5a4.Emscripten.clang"
  },
  "schemaVersion": "3.3.3",
  "updatedAt": "2021-01-03T15:26:51.720Z",
  "networkType": "ethereum",
  "devdoc": {
    "methods": {}
  },
  "userdoc": {
    "methods": {}
  }
}