{
  "contractName": "Admin",
  "abi": [
    {
      "inputs": [],
      "name": "_owner",
      "outputs": [
        {
          "internalType": "address",
          "name": "",
          "type": "address"
        }
      ],
      "stateMutability": "view",
      "type": "function",
      "constant": true
    },
    {
      "inputs": [],
      "name": "consumerNumber",
      "outputs": [
        {
          "internalType": "uint256",
          "name": "",
          "type": "uint256"
        }
      ],
      "stateMutability": "view",
      "type": "function",
      "constant": true
    },
    {
      "inputs": [],
      "name": "isOwner",
      "outputs": [
        {
          "internalType": "bool",
          "name": "",
          "type": "bool"
        }
      ],
      "stateMutability": "view",
      "type": "function",
      "constant": true
    },
    {
      "inputs": [
        {
          "internalType": "uint256",
          "name": "",
          "type": "uint256"
        }
      ],
      "name": "registration",
      "outputs": [
        {
          "internalType": "address",
          "name": "accountNo",
          "type": "address"
        },
        {
          "internalType": "uint256",
          "name": "consumerNo",
          "type": "uint256"
        }
      ],
      "stateMutability": "view",
      "type": "function",
      "constant": true
    },
    {
      "inputs": [
        {
          "internalType": "address",
          "name": "_consumerAddress",
          "type": "address"
        }
      ],
      "name": "addConsumer",
      "outputs": [],
      "stateMutability": "nonpayable",
      "type": "function"
    }
  ],
  "bytecode": "0x6080604052336000806101000a81548173ffffffffffffffffffffffffffffffffffffffff021916908373ffffffffffffffffffffffffffffffffffffffff160217905550610326806100536000396000f3fe608060405234801561001057600080fd5b50600436106100575760003560e01c8063112940f91461005c57806327581f2e146100a05780633516dcd1146100be5780638f32d59b14610133578063b2bdfa7b14610155575b600080fd5b61009e6004803603602081101561007257600080fd5b81019080803573ffffffffffffffffffffffffffffffffffffffff16906020019092919050505061019f565b005b6100a861022a565b6040518082815260200191505060405180910390f35b6100ea600480360360208110156100d457600080fd5b8101908080359060200190929190505050610230565b604051808373ffffffffffffffffffffffffffffffffffffffff1673ffffffffffffffffffffffffffffffffffffffff1681526020018281526020019250505060405180910390f35b61013b610274565b604051808215151515815260200191505060405180910390f35b61015d6102cb565b604051808273ffffffffffffffffffffffffffffffffffffffff1673ffffffffffffffffffffffffffffffffffffffff16815260200191505060405180910390f35b6001600081548092919060010191905055508060026000600154815260200190815260200160002060000160006101000a81548173ffffffffffffffffffffffffffffffffffffffff021916908373ffffffffffffffffffffffffffffffffffffffff1602179055506001546002600060015481526020019081526020016000206001018190555050565b60015481565b60026020528060005260406000206000915090508060000160009054906101000a900473ffffffffffffffffffffffffffffffffffffffff16908060010154905082565b60008060009054906101000a900473ffffffffffffffffffffffffffffffffffffffff1673ffffffffffffffffffffffffffffffffffffffff163373ffffffffffffffffffffffffffffffffffffffff1614905090565b6000809054906101000a900473ffffffffffffffffffffffffffffffffffffffff168156fea264697066735822122065ea77a3524cb31184f925c5ce323e48db72b1348b76eb4e30060f5822f3776a64736f6c63430006010033",
  "source": "// SPDX-License-Identifier: MIT\npragma solidity ^0.6.0;\nimport \"./AdminPower.sol\";\n\n\n\ncontract Admin is AdminPower{\n\n\n    uint public consumerNumber;\n    struct regConsumer\n    {\n        address accountNo; //consumer address\n\n        uint consumerNo;\n    }\n\n\n\n    //to store address of consumer according to registration  number\n    mapping(uint => regConsumer) public registration;\n\n\n    //Consumer registration function\n    function addConsumer(address _consumerAddress) public\n    {\n        consumerNumber++; //self increment consumer number\n\n        registration[consumerNumber].accountNo=_consumerAddress; //consumer's public address is stored\n\n        registration[consumerNumber].consumerNo=consumerNumber; //consumer's number is stored\n\n\n\n\n    }\n}",
  "sourcePath": "C:\\Users\\Surya\\Desktop\\PROJECT\\bc\\ced-b4-g02-sm\\contracts\\Admin.sol",
  "compiler": {
    "name": "solc",
    "version": "0.6.1+commit.e6f7d5a4.Emscripten.clang"
  },
  "schemaVersion": "3.2.0",
  "updatedAt": "2020-12-27T10:20:56.407Z",
  "networkType": "ethereum",
  "devdoc": {
    "methods": {}
  },
  "userdoc": {
    "methods": {}
  }
}