{
  "contractName": "Consumption",
  "abi": [
    {
      "inputs": [
        {
          "internalType": "contract Elektron",
          "name": "_token",
          "type": "address"
        }
      ],
      "stateMutability": "nonpayable",
      "type": "constructor"
    },
    {
      "inputs": [],
      "name": "_owner",
      "outputs": [
        {
          "internalType": "address",
          "name": "",
          "type": "address"
        }
      ],
      "stateMutability": "view",
      "type": "function",
      "constant": true
    },
    {
      "inputs": [],
      "name": "isOwner",
      "outputs": [
        {
          "internalType": "bool",
          "name": "",
          "type": "bool"
        }
      ],
      "stateMutability": "view",
      "type": "function",
      "constant": true
    },
    {
      "inputs": [],
      "name": "token",
      "outputs": [
        {
          "internalType": "contract Elektron",
          "name": "",
          "type": "address"
        }
      ],
      "stateMutability": "view",
      "type": "function",
      "constant": true
    },
    {
      "inputs": [
        {
          "internalType": "address",
          "name": "",
          "type": "address"
        }
      ],
      "name": "unitBalanceCheck",
      "outputs": [
        {
          "internalType": "uint256",
          "name": "previousReading",
          "type": "uint256"
        },
        {
          "internalType": "uint256",
          "name": "unitShared",
          "type": "uint256"
        },
        {
          "internalType": "uint256",
          "name": "due",
          "type": "uint256"
        },
        {
          "internalType": "uint256",
          "name": "currentconsumption",
          "type": "uint256"
        },
        {
          "internalType": "uint256",
          "name": "rewardamount",
          "type": "uint256"
        }
      ],
      "stateMutability": "view",
      "type": "function",
      "constant": true
    },
    {
      "inputs": [
        {
          "internalType": "address",
          "name": "_user",
          "type": "address"
        },
        {
          "internalType": "uint256",
          "name": "_currentReading",
          "type": "uint256"
        },
        {
          "internalType": "uint256",
          "name": "_unitshared",
          "type": "uint256"
        }
      ],
      "name": "totalUnitConsumed",
      "outputs": [],
      "stateMutability": "nonpayable",
      "type": "function"
    }
  ],
  "bytecode": "0x60806040526001805534801561001457600080fd5b5060405161075b38038061075b8339818101604052602081101561003757600080fd5b8101908080519060200190929190505050336000806101000a81548173ffffffffffffffffffffffffffffffffffffffff021916908373ffffffffffffffffffffffffffffffffffffffff16021790555080600360006101000a81548173ffffffffffffffffffffffffffffffffffffffff021916908373ffffffffffffffffffffffffffffffffffffffff16021790555050610682806100d96000396000f3fe608060405234801561001057600080fd5b50600436106100575760003560e01c80638f32d59b1461005c578063982ad6311461007e578063b2bdfa7b146100f2578063f7bf1c7f1461013c578063fc0c546a14610194575b600080fd5b6100646101de565b604051808215151515815260200191505060405180910390f35b6100c06004803603602081101561009457600080fd5b81019080803573ffffffffffffffffffffffffffffffffffffffff169060200190929190505050610235565b604051808681526020018581526020018481526020018381526020018281526020019550505050505060405180910390f35b6100fa61026b565b604051808273ffffffffffffffffffffffffffffffffffffffff1673ffffffffffffffffffffffffffffffffffffffff16815260200191505060405180910390f35b6101926004803603606081101561015257600080fd5b81019080803573ffffffffffffffffffffffffffffffffffffffff1690602001909291908035906020019092919080359060200190929190505050610290565b005b61019c610626565b604051808273ffffffffffffffffffffffffffffffffffffffff1673ffffffffffffffffffffffffffffffffffffffff16815260200191505060405180910390f35b60008060009054906101000a900473ffffffffffffffffffffffffffffffffffffffff1673ffffffffffffffffffffffffffffffffffffffff163373ffffffffffffffffffffffffffffffffffffffff1614905090565b60046020528060005260406000206000915090508060000154908060010154908060020154908060030154908060040154905085565b6000809054906101000a900473ffffffffffffffffffffffffffffffffffffffff1681565b6102986101de565b61030a576040517f08c379a00000000000000000000000000000000000000000000000000000000081526004018080602001828103825260208152602001807f4f776e61626c653a2063616c6c6572206973206e6f7420746865206f776e657281525060200191505060405180910390fd5b600460008473ffffffffffffffffffffffffffffffffffffffff1673ffffffffffffffffffffffffffffffffffffffff168152602001908152602001600020600001548203600460008573ffffffffffffffffffffffffffffffffffffffff1673ffffffffffffffffffffffffffffffffffffffff1681526020019081526020016000206003018190555080600460008573ffffffffffffffffffffffffffffffffffffffff1673ffffffffffffffffffffffffffffffffffffffff168152602001908152602001600020600301541061046e5780600460008573ffffffffffffffffffffffffffffffffffffffff1673ffffffffffffffffffffffffffffffffffffffff1681526020019081526020016000206003015403600460008573ffffffffffffffffffffffffffffffffffffffff1673ffffffffffffffffffffffffffffffffffffffff16815260200190815260200160002060020181905550610621565b600460008473ffffffffffffffffffffffffffffffffffffffff1673ffffffffffffffffffffffffffffffffffffffff168152602001908152602001600020600301548103600460008573ffffffffffffffffffffffffffffffffffffffff1673ffffffffffffffffffffffffffffffffffffffff16815260200190815260200160002060040181905550600360009054906101000a900473ffffffffffffffffffffffffffffffffffffffff1673ffffffffffffffffffffffffffffffffffffffff1663a9059cbb84600460008773ffffffffffffffffffffffffffffffffffffffff1673ffffffffffffffffffffffffffffffffffffffff168152602001908152602001600020600401546040518363ffffffff1660e01b8152600401808373ffffffffffffffffffffffffffffffffffffffff1673ffffffffffffffffffffffffffffffffffffffff16815260200182815260200192505050602060405180830381600087803b1580156105e457600080fd5b505af11580156105f8573d6000803e3d6000fd5b505050506040513d602081101561060e57600080fd5b8101908080519060200190929190505050505b505050565b600360009054906101000a900473ffffffffffffffffffffffffffffffffffffffff168156fea26469706673582212203b3f036314a7f6bdffe73d7e4d6ef870141552e4db4e336b83a51e4b01de20ed64736f6c63430006010033",
  "source": "// SPDX-License-Identifier: MIT\npragma solidity ^0.6.0;\nimport\"./AdminPower.sol\";\nimport\"./Elektron.sol\";\n\ncontract Consumption is AdminPower\n{\n\n\n\n\n    //no. of elektrons per unit\n    uint basevalue=1;\n    //first given reading\n    uint firstReading;\n    // state variable of tokens instance\n    Elektron public token;\n\n    constructor(Elektron _token) public {\n\n      token = _token;\n\n    }\n\n        //to store consumer consumption details\n    struct consumerDetails\n    {\n        //to store previous unit reading\n        uint previousReading;\n\n        //to store Power Grid shared unit\n        uint unitShared;\n\n        //to store total unit after claculatinf with shared unit\n         uint due;\n        \n        //to store current consumption of unit\n        uint currentconsumption;\n        \n        //to store reward tokens amount\n        uint rewardamount; \n\n       \n\n\n    }\n     \n     \n\n\n      //to store consumers consumption details\n    mapping(address=>consumerDetails) public unitBalanceCheck;\n\n\n  //function to calculate amount of units used and calculates the amount of token to be rewarded after checking both shared unit and consumed unit\n  //this function uses users current reading to check with previous reading of the same user \n\n    function totalUnitConsumed (address _user,uint _currentReading,uint _unitshared) public onlyOwner\n    {\n      //calculating total unit consumed\n      unitBalanceCheck[_user].currentconsumption=_currentReading-unitBalanceCheck[_user].previousReading;\n\n      //condition to check how much tokens to be rwarded and total of consumption. \n      if(unitBalanceCheck[_user].currentconsumption>=_unitshared)\n      {\n        unitBalanceCheck[_user].due=unitBalanceCheck[_user].currentconsumption-_unitshared;\n\n      }\n      else\n      {\n        unitBalanceCheck[_user].rewardamount=_unitshared-unitBalanceCheck[_user].currentconsumption;\n        token.transfer(_user, unitBalanceCheck[_user].rewardamount);\n      }\n    \n\n    }\n\n    \n\n  \n\n}\n",
  "sourcePath": "C:\\Users\\Surya\\Desktop\\PROJECT\\bc\\ced-b4-g02-sm\\contracts\\Consumption.sol",
  "compiler": {
    "name": "solc",
    "version": "0.6.1+commit.e6f7d5a4.Emscripten.clang"
  },
  "schemaVersion": "3.2.0",
  "updatedAt": "2020-12-27T10:20:56.412Z",
  "networkType": "ethereum",
  "devdoc": {
    "methods": {}
  },
  "userdoc": {
    "methods": {}
  }
}